S01300005247425F4C45445F4D43552E73726563BE
S113000010C02AC029C028C027C026C0BAC025C035
S113001023C022C021C020C01FC029C01DC01CC0D5
S11300201BC011241FBECFE5D1E0DEBFCDBF10E061
S1130030A0E6B0E0E4EFF1E002C005900D92A03636
S1130040B107D9F720E0A0E6B0E001C01D92A036C8
S1130050B207E1F769D0CCC0D3CF1F920F920FB68D
S11300600F9211240F900FBE0F901F9018951F929E
S11300700F920FB60F9211242F933F938F939F9358
S113008085B12CB53DB590E02817390710F41DBC97
S11300901CBC9F918F913F912F910F900FBE0F9099
S11300A01F9018958FE08ABB80E38BBBDE9A83E0B8
S11300B087BB88B3836088BB0F9A87B187B987B140
S11300C087B987B1876087B9359833983098319A62
S11300D0329A1C9A83B183B983B183B983B183B94A
S11300E0379A339A359A189A1A9A369A8EB5816045
S11300F08EBD8FB581608FBD8FB582608FBD8EB58B
S113010088608EBD8EB580618EBD659A619A8FEFD1
S113011090E09BBD8ABD82B3886482BB8FB7806840
S11301208FBF1DBC1CBC0895BDDF8CB59DB58AB5C1
S11301309BB5FBCF8BB3807F8BBB08950F931F932D
S1130140CF93DF93082FD62F142FC22FF3DF8BB357
S1130150802B8BBB8BB3412F440F482B4BBB8BB3F2
S11301606D2F660F660F682B6BBB8BB32C2F220F82
S1130170220F220F282B2BBBDF91CF911F910F91C0
S113018008951F920F920FB60F9211242F933F934D
S11301904F935F936F937F938F939F93AF93BF938B
S11301A0EF93FF93D89B0AC020E040E060E080E03A
S11301B0C5DF8FEF90E09BBD8ABD09C021E041E01F
S11301C061E081E0BBDF8FEF9FE09BBD8ABDFF91C3
S11301D0EF91BF91AF919F918F917F916F915F91BB
S11301E04F913F912F910F900FBE0F901F90189534
S10701F0F894FFCFAD
S9030000FC
