:1000000010C02AC029C028C027C026C0B9C024C03B
:1000100023C012C121C020C01FC01EC01DC01CC0F3
:100020001BC011241FBECFE5D1E0DEBFCDBF10E065
:10003000A0E6B0E0E4EFF5E002C005900D92A43632
:10004000B107D9F720E0A4E6B0E001C01D92A736C1
:10005000B207E1F7D4D0CCC2D3CF87B187B987B18B
:1000600087B987B1876087B9309A329A1C9A0F9AFC
:10007000379A369A08959FE09ABB80E38BBBDE9A4D
:1000800083E087BB88B3836088BB83B7816083BF0D
:1000900083B7826083BF80B7816080BF80B788608C
:1000A00080BF96BF189A199A89B7826089BF8EB5AA
:1000B00081608EBD8FB581608FBD8FB582608FBD31
:1000C0008EB588608EBD8EB580618EBD659A619A51
:1000D000C4DF82B3886482BB78941DBC1CBC0895C5
:1000E000CF92DF92EF92FF926B017C0120E030E033
:1000F000A9010FD287FD2BC020E030E048EC52E48C
:10010000C701B601BCD0181614F120E030EF4FE75C
:1001100055E4C701B60101D220E030E048EC52E4DA
:10012000FCD120E030E44CE156E4ADD014D1709322
:1001300066006093650020916500309166008FEF46
:100140009FE0821B930B9093620080936100FF906D
:10015000EF90DF90CF900895369A3699FECF84B114
:1001600095B108959BB3907F660F660F220F220F03
:10017000220F622B440F462B892B842B8BBB0895B7
:100180001F920F920FB60F9211242F933F934F930C
:100190005F936F937F938F939F93AF93BF93EF93EF
:1001A000FF938091600020E040E060E0882359F0F8
:1001B00080E0D8DF80916500909166009BBD8ABD8C
:1001C000109260000BC081E0CDDF809161009091C2
:1001D00062009BBD8ABD81E080936000FF91EF913A
:1001E000BF91AF919F918F917F916F915F914F914F
:1001F0003F912F910F900FBE0F901F9018953BDFEE
:10020000FFCFAADFBC0180E090E0D1D020E030E059
:1002100048EC52E482D120E030E040E857E37DD161
:100220009AD080E090E0C3D05BDF80916400893099
:1002300011F41092640008951F920F920FB60F925E
:1002400011242F933F934F935F936F937F938F93DB
:100250009F93AF93BF93EF93FF93D3DFFF91EF9102
:10026000BF91AF919F918F917F916F915F914F91CE
:100270003F912F910F900FBE0F901F901895D4D0E3
:1002800008F481E008950CD00AC102D140F0F9D001
:1002900030F021F45F3F19F0EBC0511134C1EEC0D2
:1002A0000FD198F39923C9F35523B1F3951B550B3F
:1002B000BB27AA2762177307840738F09F5F5F4F39
:1002C000220F331F441FAA1FA9F333D00E2E3AF07A
:1002D000E0E830D091505040E695001CCAF729D094
:1002E000FE2F27D0660F771F881FBB1F26173707E3
:1002F0004807AB07B0E809F0BB0B802DBF01FF2713
:1003000093585F4F2AF09E3F510568F0B1C0FBC083
:100310005F3FECF3983EDCF3869577956795B7954C
:10032000F7959F5FC9F7880F911D9695879597F967
:100330000895E1E0660F771F881FBB1F62177307E0
:100340008407BA0720F0621B730B840BBA0BEE1FF5
:1003500088F7E0950895BCD088F09F5790F0B92FAA
:100360009927B751A0F0D1F0660F771F881F991F0A
:100370001AF0BA95C9F712C0B13081F0C3D0B1E01C
:100380000895C0C0672F782F8827B85F39F0B93F2C
:10039000CCF3869577956795B395D9F73EF490950C
:1003A0008095709561957F4F8F4F9F4F0895E8948A
:1003B00009C097FB3EF490958095709561957F4FAD
:1003C0008F4F9F4F9923A9F0F92F96E9BB2793955B
:1003D000F695879577956795B795F111F8CFFAF46B
:1003E000BB0F11F460FF1BC06F5F7F4F8F4F9F4F9C
:1003F00016C0882311F096E911C0772321F09EE8FA
:10040000872F762F05C0662371F096E8862F70E05F
:1004100060E02AF09A95660F771F881FDAF7880F39
:100420009695879597F90895990F0008550FAA0B8F
:10043000E0E8FEEF16161706E807F907C0F01216F7
:100440001306E407F50798F0621B730B840B950BFA
:1004500039F40A2661F0232B242B252B21F408954F
:100460000A2609F4A140A6958FEF811D811D0895EC
:1004700097F99F6780E870E060E008959FEF80EC57
:10048000089500240A9416161706180609060895FA
:1004900000240A9412161306140605060895092E60
:1004A0000394000C11F4882352F0BB0F40F4BF2BCF
:1004B00011F460FF04C06F5F7F4F8F4F9F4F08950F
:1004C00057FD9058440F551F59F05F3F71F0479505
:1004D000880F97FB991F61F09F3F79F087950895EA
:1004E000121613061406551FF2CF4695F1DF08C009
:1004F000161617061806991FF1CF86957105610526
:1005000008940895E894BB2766277727CB0197F9CD
:1005100008958ADF08F48FEF08950AD0C0CFB1DFC5
:1005200028F0B6DF18F0952309F0A2CFA7CFEBCFC4
:10053000C7DFA8F39923D9F35523C9F3950F50E0EA
:10054000551FAA27EE27FF27BB270024089467958D
:1005500020F4E20FF31FB41F0A1E220F331F441FA3
:10056000AA1F6695A9F7779530F4F30FB41F0A1EFA
:10057000121E08F46395330F441FAA1F221F76959D
:1005800099F7879520F4B40F0A1E121E631F440FBB
:10059000AA1F221F331F8695A9F7862F712D602D64
:1005A00011249F5750408AF0E1F088234AF0EE0F63
:1005B000FF1FBB1F661F771F881F91505040A9F770
:1005C0009E3F510570F054CF9ECF5F3FECF3983EB5
:1005D000DCF3869577956795B795F795E7959F5FD7
:1005E000C1F7FE2B880F911D9695879597F9089571
:0405F000F894FFCFAD
:0405F40001FF1F00E4
:00000001FF
